:020000001728BF
:1000080009000F3982073F3406345B344F346634B5
:100018006D347D3407347F346F3400340034003459
:100028000034003400340B221421A601A701A901D1
:10003800B101B4011930A8000030A900FF30B000A8
:100048000914022209105D212521A40A193024026D
:10005800031C2728A4013108031D35287221952186
:10006800A621AB203920E2212728310803196C2862
:10007800013A03194328033A03195F28652832080F
:100088009F203408031D52280030AB00AC0037080D
:100098000520AD0038080520AE0008000030AB0090
:1000A80037080520AC00380805208038AD00330833
:1000B8000520AE0008006D30AB00AC00AD01AE010C
:1000C80008007930AB005030AC00AD00AE0108003C
:1000D80022083C3C031875282208783C0318842819
:1000E80093285E30AB0028089F2037080520AC0015
:1000F800380805208038AD0029080520AE00080022
:100108007730AB0026089F2037080520AC00380858
:1001180005208038AD0027080520AE0008007130A2
:10012800AB002A089F2037080520AC0038080520B6
:10013800AD00AE010800B600B7010A303602031C54
:10014800A828B600B70AA1283608B8000800B521C3
:10015800AF002F083002031908002F08B000022250
:100168002F08FF3A031908002F080A3A0319CD2867
:100178002F080F3A0319EF282F080E3A0319D3282E
:100188002F08093C031C08003108013A031D080028
:10019800DA280130B100B201B301B4010800310816
:1001A800013A031D08000130B40008003408031D9B
:1001B800EC283208B6000310B20D0310B20D03107C
:1001C800B20D3608B6073608B2072F08B20708007E
:1001D8002F08B30008003108013A031D0800002168
:1001E8003108033A031908003208A8003308A900A7
:1001F8000230B100A50108000A303202031C1029A0
:100208003208323C031C10293208323A031D080018
:100218003308031D102908000330B100A5010800A8
:100228008316333099002430980083129030980058
:100238000800BA008316981C1F2983123A089900EF
:1002480008008C1E08001A08B9003908013A031979
:100258003E293908023A031940293908033A031993
:1002680042293908043A031944293908053A031977
:100278004629482929081D2928081D2927081D2934
:1002880026081D292A081D293908B6003F39B80053
:100298003608C039803A031957293608C039C03A98
:1002A80003195A2908003808A90008003808A800C6
:1002B80008002B0886000816FD2108122C08860065
:1002C8008816FD2188122D0886000817FD210813BD
:1002D8002E0886008817FD2188130800B601B7018B
:1002E8004030B8000A30B500B50B78291F151F1922
:1002F8007B2983161E088312B6070318B70AB80BA2
:1003080076290310B60DB70D370803198C29B703E2
:100318003708A600A701B61B922908000530A700D8
:10032800080028082602031CA129AA000310AA0D08
:1003380063302A020318A3290800AA0108006330C1
:10034800AA000800260828020319B229031CAF29AD
:100358000914891008000910891408000910891067
:10036800080083160F30880083128510051585153F
:100378008516FD21081C0134881C0434081D073427
:10038800881D0E3485140511FD21081C0234881CB3
:100398000534081D0834881D003405158511FD2114
:1003A800081C0334881C0634081D0934881D0F34C2
:1003B80085158512FD21081C0A34FF3431080319FC
:1003C800F1293108013A03190800A50A96302502D7
:1003D800031C0800B101A2010800A30A033023028C
:1003E800031C0800A301A20AB43022020318A201C8
:1003F80008003230A000A00BFF290800C830A00078
:10040800C830A100A10B062AA00B042A08008316F5
:100418008E309F00860189010F30880011308500D9
:0E042800831286018801890181309F0008003F
:02400E00323F3F
:00000001FF
